{
  "address": "0x3BF7d6ffbdecc0d918e5b7262A8F47fBB97eE9FA",
  "abi": [
    {
      "inputs": [
        {
          "internalType": "address",
          "name": "_owner",
          "type": "address"
        },
        {
          "internalType": "address",
          "name": "_levx",
          "type": "address"
        },
        {
          "internalType": "address",
          "name": "_weth",
          "type": "address"
        },
        {
          "internalType": "address",
          "name": "_router",
          "type": "address"
        }
      ],
      "stateMutability": "nonpayable",
      "type": "constructor"
    },
    {
      "anonymous": false,
      "inputs": [
        {
          "indexed": true,
          "internalType": "bytes32",
          "name": "merkleRoot",
          "type": "bytes32"
        }
      ],
      "name": "AddMerkleRoot",
      "type": "event"
    },
    {
      "anonymous": false,
      "inputs": [
        {
          "indexed": true,
          "internalType": "bytes32",
          "name": "merkleRoot",
          "type": "bytes32"
        },
        {
          "indexed": true,
          "internalType": "address",
          "name": "account",
          "type": "address"
        },
        {
          "indexed": false,
          "internalType": "uint256",
          "name": "amount",
          "type": "uint256"
        },
        {
          "indexed": false,
          "internalType": "address",
          "name": "to",
          "type": "address"
        }
      ],
      "name": "Claim",
      "type": "event"
    },
    {
      "anonymous": false,
      "inputs": [
        {
          "indexed": false,
          "internalType": "uint256",
          "name": "amount",
          "type": "uint256"
        },
        {
          "indexed": false,
          "internalType": "address",
          "name": "from",
          "type": "address"
        }
      ],
      "name": "Deposit",
      "type": "event"
    },
    {
      "anonymous": false,
      "inputs": [
        {
          "indexed": true,
          "internalType": "address",
          "name": "previousOwner",
          "type": "address"
        },
        {
          "indexed": true,
          "internalType": "address",
          "name": "newOwner",
          "type": "address"
        }
      ],
      "name": "OwnershipTransferred",
      "type": "event"
    },
    {
      "anonymous": false,
      "inputs": [
        {
          "indexed": false,
          "internalType": "uint256",
          "name": "amount",
          "type": "uint256"
        },
        {
          "indexed": false,
          "internalType": "address",
          "name": "to",
          "type": "address"
        }
      ],
      "name": "Withdraw",
      "type": "event"
    },
    {
      "inputs": [
        {
          "internalType": "bytes32",
          "name": "merkleRoot",
          "type": "bytes32"
        }
      ],
      "name": "addMerkleRoot",
      "outputs": [],
      "stateMutability": "nonpayable",
      "type": "function"
    },
    {
      "inputs": [
        {
          "internalType": "bytes32[]",
          "name": "merkleRoots",
          "type": "bytes32[]"
        },
        {
          "internalType": "bytes32[][]",
          "name": "merkleProofs",
          "type": "bytes32[][]"
        },
        {
          "internalType": "uint256[]",
          "name": "amounts",
          "type": "uint256[]"
        },
        {
          "internalType": "address",
          "name": "to",
          "type": "address"
        }
      ],
      "name": "batchClaim",
      "outputs": [],
      "stateMutability": "nonpayable",
      "type": "function"
    },
    {
      "inputs": [
        {
          "internalType": "bytes32[]",
          "name": "merkleRoots",
          "type": "bytes32[]"
        },
        {
          "internalType": "bytes32[][]",
          "name": "merkleProofs",
          "type": "bytes32[][]"
        },
        {
          "internalType": "uint256[]",
          "name": "amounts",
          "type": "uint256[]"
        },
        {
          "internalType": "uint256",
          "name": "amountOutMin",
          "type": "uint256"
        },
        {
          "internalType": "address",
          "name": "to",
          "type": "address"
        },
        {
          "internalType": "uint256",
          "name": "deadline",
          "type": "uint256"
        }
      ],
      "name": "batchClaimAndSwapToLevx",
      "outputs": [
        {
          "internalType": "uint256",
          "name": "amountOut",
          "type": "uint256"
        }
      ],
      "stateMutability": "nonpayable",
      "type": "function"
    },
    {
      "inputs": [
        {
          "internalType": "bytes32",
          "name": "merkleRoot",
          "type": "bytes32"
        },
        {
          "internalType": "bytes32[]",
          "name": "merkleProof",
          "type": "bytes32[]"
        },
        {
          "internalType": "uint256",
          "name": "amount",
          "type": "uint256"
        },
        {
          "internalType": "address",
          "name": "to",
          "type": "address"
        }
      ],
      "name": "claim",
      "outputs": [],
      "stateMutability": "nonpayable",
      "type": "function"
    },
    {
      "inputs": [
        {
          "internalType": "bytes32",
          "name": "merkleRoot",
          "type": "bytes32"
        },
        {
          "internalType": "bytes32[]",
          "name": "merkleProof",
          "type": "bytes32[]"
        },
        {
          "internalType": "uint256",
          "name": "amount",
          "type": "uint256"
        },
        {
          "internalType": "uint256",
          "name": "amountOutMin",
          "type": "uint256"
        },
        {
          "internalType": "address",
          "name": "to",
          "type": "address"
        },
        {
          "internalType": "uint256",
          "name": "deadline",
          "type": "uint256"
        }
      ],
      "name": "claimAndSwapToLevx",
      "outputs": [
        {
          "internalType": "uint256",
          "name": "amountOut",
          "type": "uint256"
        }
      ],
      "stateMutability": "nonpayable",
      "type": "function"
    },
    {
      "inputs": [
        {
          "internalType": "bytes32",
          "name": "",
          "type": "bytes32"
        }
      ],
      "name": "isValidMerkleRoot",
      "outputs": [
        {
          "internalType": "bool",
          "name": "",
          "type": "bool"
        }
      ],
      "stateMutability": "view",
      "type": "function"
    },
    {
      "inputs": [],
      "name": "levx",
      "outputs": [
        {
          "internalType": "address",
          "name": "",
          "type": "address"
        }
      ],
      "stateMutability": "view",
      "type": "function"
    },
    {
      "inputs": [],
      "name": "owner",
      "outputs": [
        {
          "internalType": "address",
          "name": "",
          "type": "address"
        }
      ],
      "stateMutability": "view",
      "type": "function"
    },
    {
      "inputs": [],
      "name": "renounceOwnership",
      "outputs": [],
      "stateMutability": "nonpayable",
      "type": "function"
    },
    {
      "inputs": [],
      "name": "router",
      "outputs": [
        {
          "internalType": "address",
          "name": "",
          "type": "address"
        }
      ],
      "stateMutability": "view",
      "type": "function"
    },
    {
      "inputs": [
        {
          "internalType": "address",
          "name": "newOwner",
          "type": "address"
        }
      ],
      "name": "transferOwnership",
      "outputs": [],
      "stateMutability": "nonpayable",
      "type": "function"
    },
    {
      "inputs": [
        {
          "internalType": "bytes32",
          "name": "root",
          "type": "bytes32"
        },
        {
          "internalType": "bytes32",
          "name": "leaf",
          "type": "bytes32"
        },
        {
          "internalType": "bytes32[]",
          "name": "proof",
          "type": "bytes32[]"
        }
      ],
      "name": "verify",
      "outputs": [
        {
          "internalType": "bool",
          "name": "",
          "type": "bool"
        }
      ],
      "stateMutability": "pure",
      "type": "function"
    },
    {
      "inputs": [],
      "name": "weth",
      "outputs": [
        {
          "internalType": "address",
          "name": "",
          "type": "address"
        }
      ],
      "stateMutability": "view",
      "type": "function"
    },
    {
      "inputs": [
        {
          "internalType": "uint256",
          "name": "amount",
          "type": "uint256"
        }
      ],
      "name": "withdraw",
      "outputs": [],
      "stateMutability": "nonpayable",
      "type": "function"
    },
    {
      "stateMutability": "payable",
      "type": "receive"
    }
  ],
  "transactionHash": "0xf0cd6fdbb0ff62786edac45d558b5cdaf40df24ba7cc894b896fd194bb715e13",
  "args": [
    "0x0903f8892c06A99bf1D68088fAB597a0762e0BC8",
    "0xf474E526ADe9aD2CC2B66ffCE528B1A51B91FCdC",
    "0xc02aaa39b223fe8d0a0e5c4f27ead9083c756cc2",
    "0xd9e1cE17f2641f24aE83637ab66a2cca9C378B9F"
  ],
  "solcInputHash": "a8379fb73a7607fa8cd56eccf8e7a817",
  "bytecode": "0x60e06040523480156200001157600080fd5b50604051620015d0380380620015d08339810160408190526200003491620000e3565b6200003f3362000076565b6001600160601b0319606084811b821660805283811b821660a05282901b1660c0526200006c8462000076565b505050506200013f565b600080546001600160a01b038381166001600160a01b0319831681178455604051919092169283917f8be0079c531659141344cd1fd0a4f28419497f9722a3daafe3b4186f6b6457e09190a35050565b80516001600160a01b0381168114620000de57600080fd5b919050565b60008060008060808587031215620000f9578384fd5b6200010485620000c6565b93506200011460208601620000c6565b92506200012460408601620000c6565b91506200013460608601620000c6565b905092959194509250565b60805160601c60a05160601c60c05160601c61142e620001a26000396000818161033f0152818161081d0152610a2b01526000818161021c015281816107530152610961015260008181610268015281816107b501526109c3015261142e6000f3fe6080604052600436106100e15760003560e01c806362df34721161007f578063a3f1c8a611610059578063a3f1c8a6146102bd578063e9cd3b37146102dd578063f2fde38b1461030d578063f887ea401461032d57610120565b806362df347214610256578063715018a61461028a5780638da5cb5b1461029f57610120565b80633423e548116100bb5780633423e548146101875780633b274766146101bc5780633b7f6f16146101ea5780633fc8cef31461020a57610120565b806308365497146101255780632e1a7d4d146101475780633323c8071461016757610120565b3661012057604080513481523360208201527f4bcc17093cdf51079c755de089be5a85e70fa374ec656c194480fbdcda224a53910160405180910390a1005b600080fd5b34801561013157600080fd5b50610145610140366004610eca565b610361565b005b34801561015357600080fd5b506101456101623660046110c1565b610411565b34801561017357600080fd5b506101456101823660046110c1565b6104ad565b34801561019357600080fd5b506101a76101a23660046111b6565b610574565b60405190151581526020015b60405180910390f35b3480156101c857600080fd5b506101dc6101d7366004610f71565b610632565b6040519081526020016101b3565b3480156101f657600080fd5b506101dc61020536600461113e565b6108ee565b34801561021657600080fd5b5061023e7f000000000000000000000000000000000000000000000000000000000000000081565b6040516001600160a01b0390911681526020016101b3565b34801561026257600080fd5b5061023e7f000000000000000000000000000000000000000000000000000000000000000081565b34801561029657600080fd5b50610145610af9565b3480156102ab57600080fd5b506000546001600160a01b031661023e565b3480156102c957600080fd5b506101456102d83660046110d9565b610b2f565b3480156102e957600080fd5b506101a76102f83660046110c1565b60016020526000908152604090205460ff1681565b34801561031957600080fd5b50610145610328366004610ea9565b610d58565b34801561033957600080fd5b5061023e7f000000000000000000000000000000000000000000000000000000000000000081565b60005b86811015610407576103f588888381811061038f57634e487b7160e01b600052603260045260246000fd5b905060200201358787848181106103b657634e487b7160e01b600052603260045260246000fd5b90506020028101906103c891906112fc565b8787868181106103e857634e487b7160e01b600052603260045260246000fd5b9050602002013586610b2f565b806103ff816113b1565b915050610364565b5050505050505050565b6000546001600160a01b031633146104445760405162461bcd60e51b815260040161043b9061125e565b60405180910390fd5b604051339082156108fc029083906000818181858888f19350505050158015610471573d6000803e3d6000fd5b50604080518281523360208201527f8353ffcac0876ad14e226d9783c04540bfebf13871e868157d2a391cad98e918910160405180910390a150565b6000546001600160a01b031633146104d75760405162461bcd60e51b815260040161043b9061125e565b60008181526001602052604090205460ff161561052e5760405162461bcd60e51b815260206004820152601560248201527414d213d6554e88111554131250d0551157d493d3d5605a1b604482015260640161043b565b6000818152600160208190526040808320805460ff19169092179091555182917f8335f1ab0fe93a301747e8c2784fbbb5dc7bd3556e84e498c9c9aeac306d5df991a250565b600082815b83518110156106275760008482815181106105a457634e487b7160e01b600052603260045260246000fd5b60200260200101519050808310156105e7576040805160208101859052908101829052606001604051602081830303815290604052805190602001209250610614565b60408051602081018390529081018490526060016040516020818303038152906040528051906020012092505b508061061f816113b1565b915050610579565b509093149392505050565b600081428110156106755760405162461bcd60e51b815260206004820152600d60248201526c131155960e8811561412549151609a1b604482015260640161043b565b6000805b8b81101561072f5760008989838181106106a357634e487b7160e01b600052603260045260246000fd5b90506020020135905061070f8e8e848181106106cf57634e487b7160e01b600052603260045260246000fd5b905060200201358d8d858181106106f657634e487b7160e01b600052603260045260246000fd5b905060200281019061070891906112fc565b8430610b2f565b6107198184611399565b9250508080610727906113b1565b915050610679565b506040805160028082526060820183526000926020830190803683370190505090507f00000000000000000000000000000000000000000000000000000000000000008160008151811061079357634e487b7160e01b600052603260045260246000fd5b60200260200101906001600160a01b031690816001600160a01b0316815250507f0000000000000000000000000000000000000000000000000000000000000000816001815181106107f557634e487b7160e01b600052603260045260246000fd5b6001600160a01b039283166020918202929092010152604051637ff36ab560e01b81526000917f00000000000000000000000000000000000000000000000000000000000000001690637ff36ab590859061085a908c9087908d908d90600401611293565b6000604051808303818588803b15801561087357600080fd5b505af1158015610887573d6000803e3d6000fd5b50505050506040513d6000823e601f3d908101601f191682016040526108b09190810190611029565b9050806001815181106108d357634e487b7160e01b600052603260045260246000fd5b60200260200101519450505050509998505050505050505050565b600081428110156109315760405162461bcd60e51b815260206004820152600d60248201526c131155960e8811561412549151609a1b604482015260640161043b565b61093e8989898930610b2f565b6040805160028082526060820183526000926020830190803683370190505090507f0000000000000000000000000000000000000000000000000000000000000000816000815181106109a157634e487b7160e01b600052603260045260246000fd5b60200260200101906001600160a01b031690816001600160a01b0316815250507f000000000000000000000000000000000000000000000000000000000000000081600181518110610a0357634e487b7160e01b600052603260045260246000fd5b6001600160a01b039283166020918202929092010152604051637ff36ab560e01b81526000917f00000000000000000000000000000000000000000000000000000000000000001690637ff36ab5908a90610a68908b9087908c908c90600401611293565b6000604051808303818588803b158015610a8157600080fd5b505af1158015610a95573d6000803e3d6000fd5b50505050506040513d6000823e601f3d908101601f19168201604052610abe9190810190611029565b905080600181518110610ae157634e487b7160e01b600052603260045260246000fd5b60200260200101519350505050979650505050505050565b6000546001600160a01b03163314610b235760405162461bcd60e51b815260040161043b9061125e565b610b2d6000610df3565b565b60008581526001602052604090205460ff16610b835760405162461bcd60e51b815260206004820152601360248201527214d213d6554e881253959053125117d493d3d5606a1b604482015260640161043b565b6040516bffffffffffffffffffffffff193360601b1660208201526034810183905260009060540160408051601f19818403018152918152815160209283012060008981526002845282812082825290935291205490915060ff1615610c1e5760405162461bcd60e51b815260206004820152601060248201526f29a427acaa9d102327a92124a22222a760811b604482015260640161043b565b610c5c868287878080602002602001604051908101604052809392919081815260200183836020028082843760009201919091525061057492505050565b610c9f5760405162461bcd60e51b815260206004820152601460248201527329a427acaa9d1024a72b20a624a22fa82927a7a360611b604482015260640161043b565b60008681526002602090815260408083208484529091529020805460ff191660011790556001600160a01b0382163014610d0b576040516001600160a01b0383169084156108fc029085906000818181858888f19350505050158015610d09573d6000803e3d6000fd5b505b604080518481526001600160a01b0384166020820152339188917feb39f7e8463e013369dbf61026c50e69b2788ce7a699bda748adb5ae1761233c910160405180910390a3505050505050565b6000546001600160a01b03163314610d825760405162461bcd60e51b815260040161043b9061125e565b6001600160a01b038116610de75760405162461bcd60e51b815260206004820152602660248201527f4f776e61626c653a206e6577206f776e657220697320746865207a65726f206160448201526564647265737360d01b606482015260840161043b565b610df081610df3565b50565b600080546001600160a01b038381166001600160a01b0319831681178455604051919092169283917f8be0079c531659141344cd1fd0a4f28419497f9722a3daafe3b4186f6b6457e09190a35050565b80356001600160a01b0381168114610e5a57600080fd5b919050565b60008083601f840112610e70578182fd5b50813567ffffffffffffffff811115610e87578182fd5b6020830191508360208260051b8501011115610ea257600080fd5b9250929050565b600060208284031215610eba578081fd5b610ec382610e43565b9392505050565b60008060008060008060006080888a031215610ee4578283fd5b873567ffffffffffffffff80821115610efb578485fd5b610f078b838c01610e5f565b909950975060208a0135915080821115610f1f578485fd5b610f2b8b838c01610e5f565b909750955060408a0135915080821115610f43578485fd5b50610f508a828b01610e5f565b9094509250610f63905060608901610e43565b905092959891949750929550565b600080600080600080600080600060c08a8c031215610f8e578182fd5b893567ffffffffffffffff80821115610fa5578384fd5b610fb18d838e01610e5f565b909b50995060208c0135915080821115610fc9578384fd5b610fd58d838e01610e5f565b909950975060408c0135915080821115610fed578384fd5b50610ffa8c828d01610e5f565b90965094505060608a0135925061101360808b01610e43565b915060a08a013590509295985092959850929598565b6000602080838503121561103b578182fd5b825167ffffffffffffffff811115611051578283fd5b8301601f81018513611061578283fd5b805161107461106f82611375565b611344565b80828252848201915084840188868560051b8701011115611093578687fd5b8694505b838510156110b5578051835260019490940193918501918501611097565b50979650505050505050565b6000602082840312156110d2578081fd5b5035919050565b6000806000806000608086880312156110f0578081fd5b85359450602086013567ffffffffffffffff81111561110d578182fd5b61111988828901610e5f565b9095509350506040860135915061113260608701610e43565b90509295509295909350565b600080600080600080600060c0888a031215611158578283fd5b87359650602088013567ffffffffffffffff811115611175578384fd5b6111818a828b01610e5f565b90975095505060408801359350606088013592506111a160808901610e43565b915060a0880135905092959891949750929550565b6000806000606084860312156111ca578081fd5b833592506020808501359250604085013567ffffffffffffffff8111156111ef578283fd5b8501601f810187136111ff578283fd5b803561120d61106f82611375565b8082825284820191508484018a868560051b870101111561122c578687fd5b8694505b8385101561124e578035835260019490940193918501918501611230565b5080955050505050509250925092565b6020808252818101527f4f776e61626c653a2063616c6c6572206973206e6f7420746865206f776e6572604082015260600190565b600060808201868352602060808185015281875180845260a0860191508289019350845b818110156112dc5784516001600160a01b0316835293830193918301916001016112b7565b50506001600160a01b039690961660408501525050506060015292915050565b6000808335601e19843603018112611312578283fd5b83018035915067ffffffffffffffff82111561132c578283fd5b6020019150600581901b3603821315610ea257600080fd5b604051601f8201601f1916810167ffffffffffffffff8111828210171561136d5761136d6113e2565b604052919050565b600067ffffffffffffffff82111561138f5761138f6113e2565b5060051b60200190565b600082198211156113ac576113ac6113cc565b500190565b60006000198214156113c5576113c56113cc565b5060010190565b634e487b7160e01b600052601160045260246000fd5b634e487b7160e01b600052604160045260246000fdfea26469706673582212203fe5de563e3b0ddd36f5216b891ca8c5ff78ec08588139b6f7668915f2114ad164736f6c63430008030033",
  "devdoc": {
    "kind": "dev",
    "methods": {
      "owner()": {
        "details": "Returns the address of the current owner."
      },
      "renounceOwnership()": {
        "details": "Leaves the contract without owner. It will not be possible to call `onlyOwner` functions anymore. Can only be called by the current owner. NOTE: Renouncing ownership will leave the contract without an owner, thereby removing any functionality that is only available to the owner."
      },
      "transferOwnership(address)": {
        "details": "Transfers ownership of the contract to a new account (`newOwner`). Can only be called by the current owner."
      }
    },
    "version": 1
  },
  "userdoc": {
    "kind": "user",
    "methods": {},
    "version": 1
  },
  "storageLayout": {
    "storage": [
      {
        "astId": 7,
        "contract": "contracts/ETHAirdrop.sol:ETHAirdrop",
        "label": "_owner",
        "offset": 0,
        "slot": "0",
        "type": "t_address"
      },
      {
        "astId": 1065,
        "contract": "contracts/ETHAirdrop.sol:ETHAirdrop",
        "label": "isValidMerkleRoot",
        "offset": 0,
        "slot": "1",
        "type": "t_mapping(t_bytes32,t_bool)"
      },
      {
        "astId": 1071,
        "contract": "contracts/ETHAirdrop.sol:ETHAirdrop",
        "label": "_hasClaimed",
        "offset": 0,
        "slot": "2",
        "type": "t_mapping(t_bytes32,t_mapping(t_bytes32,t_bool))"
      }
    ],
    "types": {
      "t_address": {
        "encoding": "inplace",
        "label": "address",
        "numberOfBytes": "20"
      },
      "t_bool": {
        "encoding": "inplace",
        "label": "bool",
        "numberOfBytes": "1"
      },
      "t_bytes32": {
        "encoding": "inplace",
        "label": "bytes32",
        "numberOfBytes": "32"
      },
      "t_mapping(t_bytes32,t_bool)": {
        "encoding": "mapping",
        "key": "t_bytes32",
        "label": "mapping(bytes32 => bool)",
        "numberOfBytes": "32",
        "value": "t_bool"
      },
      "t_mapping(t_bytes32,t_mapping(t_bytes32,t_bool))": {
        "encoding": "mapping",
        "key": "t_bytes32",
        "label": "mapping(bytes32 => mapping(bytes32 => bool))",
        "numberOfBytes": "32",
        "value": "t_mapping(t_bytes32,t_bool)"
      }
    }
  }
}