{
  "address": "0x3B8109853B983fE60a4A0a2d03296f94F4C2C026",
  "abi": [
    {
      "inputs": [
        {
          "internalType": "address",
          "name": "_owner",
          "type": "address"
        },
        {
          "internalType": "address",
          "name": "_levx",
          "type": "address"
        },
        {
          "internalType": "address",
          "name": "_signer",
          "type": "address"
        }
      ],
      "stateMutability": "nonpayable",
      "type": "constructor"
    },
    {
      "anonymous": false,
      "inputs": [
        {
          "indexed": true,
          "internalType": "bytes32",
          "name": "merkleRoot",
          "type": "bytes32"
        },
        {
          "indexed": false,
          "internalType": "enum LevxStreaming.AuthType",
          "name": "authType",
          "type": "uint8"
        },
        {
          "indexed": false,
          "internalType": "uint32",
          "name": "deadline",
          "type": "uint32"
        },
        {
          "indexed": true,
          "internalType": "address",
          "name": "wallet",
          "type": "address"
        }
      ],
      "name": "Add",
      "type": "event"
    },
    {
      "anonymous": false,
      "inputs": [
        {
          "indexed": true,
          "internalType": "address",
          "name": "signer",
          "type": "address"
        }
      ],
      "name": "ChangeSigner",
      "type": "event"
    },
    {
      "anonymous": false,
      "inputs": [
        {
          "indexed": true,
          "internalType": "bytes32",
          "name": "hash",
          "type": "bytes32"
        },
        {
          "indexed": true,
          "internalType": "address",
          "name": "recipient",
          "type": "address"
        },
        {
          "indexed": false,
          "internalType": "uint256",
          "name": "amount",
          "type": "uint256"
        }
      ],
      "name": "Claim",
      "type": "event"
    },
    {
      "anonymous": false,
      "inputs": [
        {
          "indexed": true,
          "internalType": "address",
          "name": "previousOwner",
          "type": "address"
        },
        {
          "indexed": true,
          "internalType": "address",
          "name": "newOwner",
          "type": "address"
        }
      ],
      "name": "OwnershipTransferred",
      "type": "event"
    },
    {
      "anonymous": false,
      "inputs": [
        {
          "indexed": true,
          "internalType": "bytes32",
          "name": "hash",
          "type": "bytes32"
        },
        {
          "indexed": true,
          "internalType": "bytes32",
          "name": "merkleRoot",
          "type": "bytes32"
        },
        {
          "indexed": true,
          "internalType": "bytes32",
          "name": "id",
          "type": "bytes32"
        },
        {
          "indexed": false,
          "internalType": "address",
          "name": "recipient",
          "type": "address"
        },
        {
          "indexed": false,
          "internalType": "uint256",
          "name": "amount",
          "type": "uint256"
        }
      ],
      "name": "Start",
      "type": "event"
    },
    {
      "inputs": [
        {
          "internalType": "bytes32",
          "name": "merkleRoot",
          "type": "bytes32"
        },
        {
          "internalType": "enum LevxStreaming.AuthType",
          "name": "authType",
          "type": "uint8"
        },
        {
          "internalType": "uint32",
          "name": "deadline",
          "type": "uint32"
        },
        {
          "internalType": "address",
          "name": "wallet",
          "type": "address"
        }
      ],
      "name": "add",
      "outputs": [],
      "stateMutability": "nonpayable",
      "type": "function"
    },
    {
      "inputs": [
        {
          "internalType": "address",
          "name": "_signer",
          "type": "address"
        }
      ],
      "name": "changeSigner",
      "outputs": [],
      "stateMutability": "nonpayable",
      "type": "function"
    },
    {
      "inputs": [
        {
          "internalType": "bytes32",
          "name": "hash",
          "type": "bytes32"
        }
      ],
      "name": "claim",
      "outputs": [],
      "stateMutability": "nonpayable",
      "type": "function"
    },
    {
      "inputs": [
        {
          "internalType": "bytes32",
          "name": "",
          "type": "bytes32"
        }
      ],
      "name": "distributionOf",
      "outputs": [
        {
          "internalType": "enum LevxStreaming.AuthType",
          "name": "authType",
          "type": "uint8"
        },
        {
          "internalType": "uint32",
          "name": "deadline",
          "type": "uint32"
        },
        {
          "internalType": "address",
          "name": "wallet",
          "type": "address"
        }
      ],
      "stateMutability": "view",
      "type": "function"
    },
    {
      "inputs": [],
      "name": "levx",
      "outputs": [
        {
          "internalType": "address",
          "name": "",
          "type": "address"
        }
      ],
      "stateMutability": "view",
      "type": "function"
    },
    {
      "inputs": [],
      "name": "owner",
      "outputs": [
        {
          "internalType": "address",
          "name": "",
          "type": "address"
        }
      ],
      "stateMutability": "view",
      "type": "function"
    },
    {
      "inputs": [
        {
          "internalType": "bytes32",
          "name": "hash",
          "type": "bytes32"
        }
      ],
      "name": "pendingAmount",
      "outputs": [
        {
          "internalType": "uint256",
          "name": "",
          "type": "uint256"
        }
      ],
      "stateMutability": "view",
      "type": "function"
    },
    {
      "inputs": [],
      "name": "renounceOwnership",
      "outputs": [],
      "stateMutability": "nonpayable",
      "type": "function"
    },
    {
      "inputs": [],
      "name": "signer",
      "outputs": [
        {
          "internalType": "address",
          "name": "",
          "type": "address"
        }
      ],
      "stateMutability": "view",
      "type": "function"
    },
    {
      "inputs": [
        {
          "internalType": "bytes32",
          "name": "merkleRoot",
          "type": "bytes32"
        },
        {
          "internalType": "bytes32[]",
          "name": "merkleProof",
          "type": "bytes32[]"
        },
        {
          "internalType": "bytes",
          "name": "authData",
          "type": "bytes"
        }
      ],
      "name": "start",
      "outputs": [],
      "stateMutability": "nonpayable",
      "type": "function"
    },
    {
      "inputs": [
        {
          "internalType": "bytes32",
          "name": "",
          "type": "bytes32"
        }
      ],
      "name": "streamingOf",
      "outputs": [
        {
          "internalType": "address",
          "name": "recipient",
          "type": "address"
        },
        {
          "internalType": "uint32",
          "name": "startedAt",
          "type": "uint32"
        },
        {
          "internalType": "uint256",
          "name": "amountTotal",
          "type": "uint256"
        },
        {
          "internalType": "uint256",
          "name": "amountStreamed",
          "type": "uint256"
        }
      ],
      "stateMutability": "view",
      "type": "function"
    },
    {
      "inputs": [
        {
          "internalType": "address",
          "name": "newOwner",
          "type": "address"
        }
      ],
      "name": "transferOwnership",
      "outputs": [],
      "stateMutability": "nonpayable",
      "type": "function"
    },
    {
      "inputs": [
        {
          "internalType": "bytes32",
          "name": "root",
          "type": "bytes32"
        },
        {
          "internalType": "bytes32",
          "name": "leaf",
          "type": "bytes32"
        },
        {
          "internalType": "bytes32[]",
          "name": "proof",
          "type": "bytes32[]"
        }
      ],
      "name": "verify",
      "outputs": [
        {
          "internalType": "bool",
          "name": "",
          "type": "bool"
        }
      ],
      "stateMutability": "pure",
      "type": "function"
    }
  ],
  "transactionHash": "0x37c8cadc127181d893b0cacba852f0bdc198de18bbd784fbb23fded4387daca1",
  "args": [
    "0x0903f8892c06A99bf1D68088fAB597a0762e0BC8",
    "0xf474E526ADe9aD2CC2B66ffCE528B1A51B91FCdC",
    "0x5b8C253517b6Bd003369173109693B01cb6841B5"
  ],
  "solcInputHash": "96b5d16ee9a89a2538e85a223b24af43",
  "bytecode": "0x60a06040523480156200001157600080fd5b50604051620019ea380380620019ea833981016040819052620000349162000121565b6200003f33620000b4565b606082901b6001600160601b031916608052600180546001600160a01b0319166001600160a01b0383161790556200007783620000b4565b6040516001600160a01b038216907f2c4c2330e655d7c5374379a59a72351868d5364faf6af52488661fa4e344f94890600090a25050506200016a565b600080546001600160a01b038381166001600160a01b0319831681178455604051919092169283917f8be0079c531659141344cd1fd0a4f28419497f9722a3daafe3b4186f6b6457e09190a35050565b80516001600160a01b03811681146200011c57600080fd5b919050565b60008060006060848603121562000136578283fd5b620001418462000104565b9250620001516020850162000104565b9150620001616040850162000104565b90509250925092565b60805160601c61185362000197600039600081816101f20152818161060e015261079201526118536000f3fe608060405234801561001057600080fd5b50600436106100cf5760003560e01c80637d1e7ade1161008c578063bd66528a11610066578063bd66528a14610255578063e2c1446914610268578063f2fde38b14610289578063fdcb15811461029c576100cf565b80637d1e7ade1461021e5780638da5cb5b14610231578063aad2b72314610242576100cf565b8063238ac933146100d45780633423e54814610104578063469f5dda1461012757806356be2f121461019d57806362df3472146101ed578063715018a614610214575b600080fd5b6001546100e7906001600160a01b031681565b6040516001600160a01b0390911681526020015b60405180910390f35b6101176101123660046114ab565b6102af565b60405190151581526020016100fb565b61016e6101353660046113f5565b6003602052600090815260409020805460018201546002909201546001600160a01b03821692600160a01b90920463ffffffff16919084565b604080516001600160a01b03909516855263ffffffff90931660208501529183015260608201526080016100fb565b6101de6101ab3660046113f5565b60026020526000908152604090205460ff811690610100810463ffffffff1690600160281b90046001600160a01b031683565b6040516100fb93929190611688565b6100e77f000000000000000000000000000000000000000000000000000000000000000081565b61021c61036f565b005b61021c61022c36600461140d565b6103ae565b6000546001600160a01b03166100e7565b61021c6102503660046113bb565b610690565b61021c6102633660046113f5565b610704565b61027b6102763660046113f5565b6107f6565b6040519081526020016100fb565b61021c6102973660046113bb565b610825565b61021c6102aa366004611568565b6108c0565b600082815b83518110156103625760008482815181106102df57634e487b7160e01b600052603260045260246000fd5b602002602001015190508083101561032257604080516020810185905290810182905260600160405160208183030381529060405280519060200120925061034f565b60408051602081018390529081018490526060016040516020818303038152906040528051906020012092505b508061035a816117d6565b9150506102b4565b50841490505b9392505050565b6000546001600160a01b031633146103a25760405162461bcd60e51b8152600401610399906116ee565b60405180910390fd5b6103ac6000610a9c565b565b60008481526002602052604090208054600160281b90046001600160a01b0316806104105760405162461bcd60e51b8152602060048201526012602482015271131155960e881253959053125117d493d3d560721b6044820152606401610399565b8154429063ffffffff6101009091048116908216106104615760405162461bcd60e51b815260206004820152600d60248201526c131155960e8811561412549151609a1b6044820152606401610399565b8254600090819081906104779060ff1688610aec565b925092509250600082116104c45760405162461bcd60e51b8152602060048201526014602482015273131155960e881253959053125117d05353d5539560621b6044820152606401610399565b6105028a828b8b808060200260200160405190810160405280939291908181526020018383602002808284376000920191909152506102af92505050565b6105445760405162461bcd60e51b81526020600482015260136024820152722622ab2c1d1024a72b20a624a22fa82927a7a360691b6044820152606401610399565b6040805160208082018d905281830184905282518083038401815260609092018352815191810191909120600081815260039092529190208054600160a01b900463ffffffff16156105d05760405162461bcd60e51b8152602060048201526015602482015274131155960e881053149150511657d4d51054951151605a1b6044820152606401610399565b80546001600160a01b031963ffffffff808916600160a01b02919091166001600160c01b0319909216919091173317825560018201859055610643907f00000000000000000000000000000000000000000000000000000000000000006001600160a01b031690899030908890610ce216565b604080513381526020810186905286918e9185917fe44ef46d6992c3b3a11790dfd4321a86b4dac7aaa1657ef6bc5800abff9eeb40910160405180910390a4505050505050505050505050565b6000546001600160a01b031633146106ba5760405162461bcd60e51b8152600401610399906116ee565b600180546001600160a01b0319166001600160a01b0383169081179091556040517f2c4c2330e655d7c5374379a59a72351868d5364faf6af52488661fa4e344f94890600090a250565b600081815260036020526040902080546001600160a01b0316331461075d5760405162461bcd60e51b815260206004820152600f60248201526e2622ab2c1d102327a92124a22222a760891b6044820152606401610399565b600061076882610d53565b9050600082600201548261077c9190611793565b6002840183905590506107b96001600160a01b037f0000000000000000000000000000000000000000000000000000000000000000163383610da2565b604051818152339085907f46e470efd1d5601791612d2263f0a4437104a35be37a932cdc59dfe948c8dfbc9060200160405180910390a350505050565b6000818152600360205260408120600281015461081282610d53565b61081c9190611793565b9150505b919050565b6000546001600160a01b0316331461084f5760405162461bcd60e51b8152600401610399906116ee565b6001600160a01b0381166108b45760405162461bcd60e51b815260206004820152602660248201527f4f776e61626c653a206e6577206f776e657220697320746865207a65726f206160448201526564647265737360d01b6064820152608401610399565b6108bd81610a9c565b50565b6000546001600160a01b031633146108ea5760405162461bcd60e51b8152600401610399906116ee565b8163ffffffff1642106109385760405162461bcd60e51b81526020600482015260166024820152754c4556583a20494e56414c49445f444541444c494e4560501b6044820152606401610399565b6001600160a01b0381166109855760405162461bcd60e51b8152602060048201526014602482015273131155960e881253959053125117d5d05313115560621b6044820152606401610399565b60008481526002602052604090208054600160281b90046001600160a01b0316156109e95760405162461bcd60e51b8152602060048201526014602482015273131155960e88111554131250d0551157d493d3d560621b6044820152606401610399565b80548490829060ff191660018381811115610a1457634e487b7160e01b600052602160045260246000fd5b02179055508054610100600160c81b03191661010063ffffffff85160265010000000000600160c81b03191617600160281b6001600160a01b03841690810291909117825560405186907f269c6df58377534b2dcae341686bf140c485388547224f47f1ae59a035cd43c690610a8d9088908890611667565b60405180910390a35050505050565b600080546001600160a01b038381166001600160a01b0319831681178455604051919092169283917f8be0079c531659141344cd1fd0a4f28419497f9722a3daafe3b4186f6b6457e09190a35050565b6000808080856001811115610b1157634e487b7160e01b600052602160045260246000fd5b1415610b74578351339350610b2f9085016020908101908601611611565b6040516bffffffffffffffffffffffff193360601b16602082015260348101829052909250605401604051602081830303815290604052805190602001209050610cdb565b600080600080600088806020019051810190610b9091906115c3565b945094509450945094506000801b8511610bdf5760405162461bcd60e51b815260206004820152601060248201526f131155960e881253959053125117d25160821b6044820152606401610399565b8497508396508787604051602001610c01929190918252602082015260400190565b60408051601f1981840301815291905280516020909101206001549096506001600160a01b0316610c8a610c82886040517f19457468657265756d205369676e6564204d6573736167653a0a3332000000006020820152603c8101829052600090605c01604051602081830303815290604052805190602001209050919050565b858585610dd7565b6001600160a01b031614610cd55760405162461bcd60e51b8152602060048201526012602482015271131155960e8815539055551213d49256915160721b6044820152606401610399565b50505050505b9250925092565b6040516001600160a01b0380851660248301528316604482015260648101829052610d4d9085906323b872dd60e01b906084015b60408051601f198184030181529190526020810180516001600160e01b03166001600160e01b031990931692909217909152610dff565b50505050565b80546000908190610d7190600160a01b900463ffffffff1642611793565b905062ed4e00811115610d84575062ed4e005b62ed4e00818460010154610d989190611774565b61081c9190611754565b6040516001600160a01b038316602482015260448101829052610dd290849063a9059cbb60e01b90606401610d16565b505050565b6000806000610de887878787610ed1565b91509150610df581610fbe565b5095945050505050565b6000610e54826040518060400160405280602081526020017f5361666545524332303a206c6f772d6c6576656c2063616c6c206661696c6564815250856001600160a01b03166111c19092919063ffffffff16565b805190915015610dd25780806020019051810190610e7291906113d5565b610dd25760405162461bcd60e51b815260206004820152602a60248201527f5361666545524332303a204552433230206f7065726174696f6e20646964206e6044820152691bdd081cdd58d8d9595960b21b6064820152608401610399565b6000807f7fffffffffffffffffffffffffffffff5d576e7357a4501ddfe92f46681b20a0831115610f085750600090506003610fb5565b8460ff16601b14158015610f2057508460ff16601c14155b15610f315750600090506004610fb5565b6040805160008082526020820180845289905260ff881692820192909252606081018690526080810185905260019060a0016020604051602081039080840390855afa158015610f85573d6000803e3d6000fd5b5050604051601f1901519150506001600160a01b038116610fae57600060019250925050610fb5565b9150600090505b94509492505050565b6000816004811115610fe057634e487b7160e01b600052602160045260246000fd5b1415610feb576108bd565b600181600481111561100d57634e487b7160e01b600052602160045260246000fd5b141561105b5760405162461bcd60e51b815260206004820152601860248201527f45434453413a20696e76616c6964207369676e617475726500000000000000006044820152606401610399565b600281600481111561107d57634e487b7160e01b600052602160045260246000fd5b14156110cb5760405162461bcd60e51b815260206004820152601f60248201527f45434453413a20696e76616c6964207369676e6174757265206c656e677468006044820152606401610399565b60038160048111156110ed57634e487b7160e01b600052602160045260246000fd5b14156111465760405162461bcd60e51b815260206004820152602260248201527f45434453413a20696e76616c6964207369676e6174757265202773272076616c604482015261756560f01b6064820152608401610399565b600481600481111561116857634e487b7160e01b600052602160045260246000fd5b14156108bd5760405162461bcd60e51b815260206004820152602260248201527f45434453413a20696e76616c6964207369676e6174757265202776272076616c604482015261756560f01b6064820152608401610399565b60606111d084846000856111d8565b949350505050565b6060824710156112395760405162461bcd60e51b815260206004820152602660248201527f416464726573733a20696e73756666696369656e742062616c616e636520666f6044820152651c8818d85b1b60d21b6064820152608401610399565b843b6112875760405162461bcd60e51b815260206004820152601d60248201527f416464726573733a2063616c6c20746f206e6f6e2d636f6e74726163740000006044820152606401610399565b600080866001600160a01b031685876040516112a3919061164b565b60006040518083038185875af1925050503d80600081146112e0576040519150601f19603f3d011682016040523d82523d6000602084013e6112e5565b606091505b50915091506112f5828286611300565b979650505050505050565b6060831561130f575081610368565b82511561131f5782518084602001fd5b8160405162461bcd60e51b815260040161039991906116bb565b80356001600160a01b038116811461082057600080fd5b600082601f830112611360578081fd5b813567ffffffffffffffff81111561137a5761137a611807565b61138d601f8201601f1916602001611723565b8181528460208386010111156113a1578283fd5b816020850160208301379081016020019190915292915050565b6000602082840312156113cc578081fd5b61036882611339565b6000602082840312156113e6578081fd5b81518015158114610368578182fd5b600060208284031215611406578081fd5b5035919050565b60008060008060608587031215611422578283fd5b84359350602085013567ffffffffffffffff80821115611440578485fd5b818701915087601f830112611453578485fd5b813581811115611461578586fd5b8860208260051b8501011115611475578586fd5b602083019550809450506040870135915080821115611492578283fd5b5061149f87828801611350565b91505092959194509250565b6000806000606084860312156114bf578283fd5b833592506020808501359250604085013567ffffffffffffffff808211156114e5578384fd5b818701915087601f8301126114f8578384fd5b81358181111561150a5761150a611807565b8060051b915061151b848301611723565b8181528481019084860184860187018c1015611535578788fd5b8795505b83861015611557578035835260019590950194918601918601611539565b508096505050505050509250925092565b6000806000806080858703121561157d578384fd5b84359350602085013560028110611592578384fd5b9250604085013563ffffffff811681146115aa578283fd5b91506115b860608601611339565b905092959194509250565b600080600080600060a086880312156115da578081fd5b8551945060208601519350604086015160ff811681146115f8578182fd5b6060870151608090970151959894975095949392505050565b600060208284031215611622578081fd5b5051919050565b6002811061164757634e487b7160e01b600052602160045260246000fd5b9052565b6000825161165d8184602087016117aa565b9190910192915050565b604081016116758285611629565b63ffffffff831660208301529392505050565b606081016116968286611629565b63ffffffff9390931660208201526001600160a01b0391909116604090910152919050565b60006020825282518060208401526116da8160408501602087016117aa565b601f01601f19169190910160400192915050565b6020808252818101527f4f776e61626c653a2063616c6c6572206973206e6f7420746865206f776e6572604082015260600190565b604051601f8201601f1916810167ffffffffffffffff8111828210171561174c5761174c611807565b604052919050565b60008261176f57634e487b7160e01b81526012600452602481fd5b500490565b600081600019048311821515161561178e5761178e6117f1565b500290565b6000828210156117a5576117a56117f1565b500390565b60005b838110156117c55781810151838201526020016117ad565b83811115610d4d5750506000910152565b60006000198214156117ea576117ea6117f1565b5060010190565b634e487b7160e01b600052601160045260246000fd5b634e487b7160e01b600052604160045260246000fdfea26469706673582212204d9caf6e74ea38436bb347d894db99350087e4c55a41cdde4e1849b15c95039364736f6c63430008030033",
  "devdoc": {
    "kind": "dev",
    "methods": {
      "owner()": {
        "details": "Returns the address of the current owner."
      },
      "renounceOwnership()": {
        "details": "Leaves the contract without owner. It will not be possible to call `onlyOwner` functions anymore. Can only be called by the current owner. NOTE: Renouncing ownership will leave the contract without an owner, thereby removing any functionality that is only available to the owner."
      },
      "transferOwnership(address)": {
        "details": "Transfers ownership of the contract to a new account (`newOwner`). Can only be called by the current owner."
      }
    },
    "version": 1
  },
  "userdoc": {
    "kind": "user",
    "methods": {},
    "version": 1
  },
  "storageLayout": {
    "storage": [
      {
        "astId": 7,
        "contract": "contracts/LevxStreaming.sol:LevxStreaming",
        "label": "_owner",
        "offset": 0,
        "slot": "0",
        "type": "t_address"
      },
      {
        "astId": 2512,
        "contract": "contracts/LevxStreaming.sol:LevxStreaming",
        "label": "signer",
        "offset": 0,
        "slot": "1",
        "type": "t_address"
      },
      {
        "astId": 2517,
        "contract": "contracts/LevxStreaming.sol:LevxStreaming",
        "label": "distributionOf",
        "offset": 0,
        "slot": "2",
        "type": "t_mapping(t_bytes32,t_struct(Distribution)2499_storage)"
      },
      {
        "astId": 2522,
        "contract": "contracts/LevxStreaming.sol:LevxStreaming",
        "label": "streamingOf",
        "offset": 0,
        "slot": "3",
        "type": "t_mapping(t_bytes32,t_struct(Streaming)2508_storage)"
      }
    ],
    "types": {
      "t_address": {
        "encoding": "inplace",
        "label": "address",
        "numberOfBytes": "20"
      },
      "t_bytes32": {
        "encoding": "inplace",
        "label": "bytes32",
        "numberOfBytes": "32"
      },
      "t_enum(AuthType)2491": {
        "encoding": "inplace",
        "label": "enum LevxStreaming.AuthType",
        "numberOfBytes": "1"
      },
      "t_mapping(t_bytes32,t_struct(Distribution)2499_storage)": {
        "encoding": "mapping",
        "key": "t_bytes32",
        "label": "mapping(bytes32 => struct LevxStreaming.Distribution)",
        "numberOfBytes": "32",
        "value": "t_struct(Distribution)2499_storage"
      },
      "t_mapping(t_bytes32,t_struct(Streaming)2508_storage)": {
        "encoding": "mapping",
        "key": "t_bytes32",
        "label": "mapping(bytes32 => struct LevxStreaming.Streaming)",
        "numberOfBytes": "32",
        "value": "t_struct(Streaming)2508_storage"
      },
      "t_struct(Distribution)2499_storage": {
        "encoding": "inplace",
        "label": "struct LevxStreaming.Distribution",
        "members": [
          {
            "astId": 2494,
            "contract": "contracts/LevxStreaming.sol:LevxStreaming",
            "label": "authType",
            "offset": 0,
            "slot": "0",
            "type": "t_enum(AuthType)2491"
          },
          {
            "astId": 2496,
            "contract": "contracts/LevxStreaming.sol:LevxStreaming",
            "label": "deadline",
            "offset": 1,
            "slot": "0",
            "type": "t_uint32"
          },
          {
            "astId": 2498,
            "contract": "contracts/LevxStreaming.sol:LevxStreaming",
            "label": "wallet",
            "offset": 5,
            "slot": "0",
            "type": "t_address"
          }
        ],
        "numberOfBytes": "32"
      },
      "t_struct(Streaming)2508_storage": {
        "encoding": "inplace",
        "label": "struct LevxStreaming.Streaming",
        "members": [
          {
            "astId": 2501,
            "contract": "contracts/LevxStreaming.sol:LevxStreaming",
            "label": "recipient",
            "offset": 0,
            "slot": "0",
            "type": "t_address"
          },
          {
            "astId": 2503,
            "contract": "contracts/LevxStreaming.sol:LevxStreaming",
            "label": "startedAt",
            "offset": 20,
            "slot": "0",
            "type": "t_uint32"
          },
          {
            "astId": 2505,
            "contract": "contracts/LevxStreaming.sol:LevxStreaming",
            "label": "amountTotal",
            "offset": 0,
            "slot": "1",
            "type": "t_uint256"
          },
          {
            "astId": 2507,
            "contract": "contracts/LevxStreaming.sol:LevxStreaming",
            "label": "amountStreamed",
            "offset": 0,
            "slot": "2",
            "type": "t_uint256"
          }
        ],
        "numberOfBytes": "96"
      },
      "t_uint256": {
        "encoding": "inplace",
        "label": "uint256",
        "numberOfBytes": "32"
      },
      "t_uint32": {
        "encoding": "inplace",
        "label": "uint32",
        "numberOfBytes": "4"
      }
    }
  }
}