{
  "address": "0xEED2a42Ff5Dd5969eD13B0E992193974Fd9add19",
  "abi": [
    {
      "inputs": [
        {
          "internalType": "address",
          "name": "_levx",
          "type": "address"
        }
      ],
      "stateMutability": "nonpayable",
      "type": "constructor"
    },
    {
      "anonymous": false,
      "inputs": [
        {
          "indexed": true,
          "internalType": "uint256",
          "name": "id",
          "type": "uint256"
        },
        {
          "indexed": false,
          "internalType": "uint256",
          "name": "amount",
          "type": "uint256"
        },
        {
          "indexed": true,
          "internalType": "address",
          "name": "recipient",
          "type": "address"
        }
      ],
      "name": "Claim",
      "type": "event"
    },
    {
      "anonymous": false,
      "inputs": [
        {
          "indexed": true,
          "internalType": "address",
          "name": "previousOwner",
          "type": "address"
        },
        {
          "indexed": true,
          "internalType": "address",
          "name": "newOwner",
          "type": "address"
        }
      ],
      "name": "OwnershipTransferred",
      "type": "event"
    },
    {
      "anonymous": false,
      "inputs": [
        {
          "indexed": true,
          "internalType": "uint256",
          "name": "id",
          "type": "uint256"
        },
        {
          "indexed": false,
          "internalType": "address",
          "name": "wallet",
          "type": "address"
        },
        {
          "indexed": true,
          "internalType": "address",
          "name": "recipient",
          "type": "address"
        },
        {
          "indexed": false,
          "internalType": "uint32",
          "name": "duration",
          "type": "uint32"
        },
        {
          "indexed": false,
          "internalType": "uint256",
          "name": "amount",
          "type": "uint256"
        }
      ],
      "name": "Start",
      "type": "event"
    },
    {
      "anonymous": false,
      "inputs": [
        {
          "indexed": true,
          "internalType": "uint256",
          "name": "id",
          "type": "uint256"
        },
        {
          "indexed": false,
          "internalType": "uint256",
          "name": "pendingAmount",
          "type": "uint256"
        }
      ],
      "name": "Stop",
      "type": "event"
    },
    {
      "inputs": [
        {
          "internalType": "uint256",
          "name": "id",
          "type": "uint256"
        },
        {
          "internalType": "address",
          "name": "to",
          "type": "address"
        },
        {
          "internalType": "bytes",
          "name": "callData",
          "type": "bytes"
        }
      ],
      "name": "claim",
      "outputs": [],
      "stateMutability": "nonpayable",
      "type": "function"
    },
    {
      "inputs": [],
      "name": "levx",
      "outputs": [
        {
          "internalType": "address",
          "name": "",
          "type": "address"
        }
      ],
      "stateMutability": "view",
      "type": "function"
    },
    {
      "inputs": [],
      "name": "owner",
      "outputs": [
        {
          "internalType": "address",
          "name": "",
          "type": "address"
        }
      ],
      "stateMutability": "view",
      "type": "function"
    },
    {
      "inputs": [
        {
          "internalType": "uint256",
          "name": "",
          "type": "uint256"
        }
      ],
      "name": "payouts",
      "outputs": [
        {
          "internalType": "address",
          "name": "wallet",
          "type": "address"
        },
        {
          "internalType": "address",
          "name": "recipient",
          "type": "address"
        },
        {
          "internalType": "uint32",
          "name": "startedAt",
          "type": "uint32"
        },
        {
          "internalType": "uint32",
          "name": "duration",
          "type": "uint32"
        },
        {
          "internalType": "uint32",
          "name": "stoppedAt",
          "type": "uint32"
        },
        {
          "internalType": "uint256",
          "name": "amount",
          "type": "uint256"
        },
        {
          "internalType": "uint256",
          "name": "claimed",
          "type": "uint256"
        }
      ],
      "stateMutability": "view",
      "type": "function"
    },
    {
      "inputs": [
        {
          "internalType": "uint256",
          "name": "id",
          "type": "uint256"
        }
      ],
      "name": "pendingAmount",
      "outputs": [
        {
          "internalType": "uint256",
          "name": "",
          "type": "uint256"
        }
      ],
      "stateMutability": "view",
      "type": "function"
    },
    {
      "inputs": [],
      "name": "renounceOwnership",
      "outputs": [],
      "stateMutability": "nonpayable",
      "type": "function"
    },
    {
      "inputs": [
        {
          "internalType": "address",
          "name": "wallet",
          "type": "address"
        },
        {
          "internalType": "address",
          "name": "recipient",
          "type": "address"
        },
        {
          "internalType": "uint32",
          "name": "duration",
          "type": "uint32"
        },
        {
          "internalType": "uint256",
          "name": "amount",
          "type": "uint256"
        }
      ],
      "name": "start",
      "outputs": [],
      "stateMutability": "nonpayable",
      "type": "function"
    },
    {
      "inputs": [
        {
          "internalType": "uint256",
          "name": "id",
          "type": "uint256"
        }
      ],
      "name": "stop",
      "outputs": [],
      "stateMutability": "nonpayable",
      "type": "function"
    },
    {
      "inputs": [
        {
          "internalType": "address",
          "name": "newOwner",
          "type": "address"
        }
      ],
      "name": "transferOwnership",
      "outputs": [],
      "stateMutability": "nonpayable",
      "type": "function"
    }
  ],
  "transactionHash": "0x6de66fcd9b8b5bdff54fd36e6e5756bfdd42e488bd093d3a4f3aa569364f772c",
  "args": [
    "0xf474E526ADe9aD2CC2B66ffCE528B1A51B91FCdC"
  ],
  "solcInputHash": "a53e243112359c04ea2dd8025743d861",
  "bytecode": "0x60a060405234801561001057600080fd5b5060405161105038038061105083398101604081905261002f9161009d565b6100383361004d565b60601b6001600160601b0319166080526100cb565b600080546001600160a01b038381166001600160a01b0319831681178455604051919092169283917f8be0079c531659141344cd1fd0a4f28419497f9722a3daafe3b4186f6b6457e09190a35050565b6000602082840312156100ae578081fd5b81516001600160a01b03811681146100c4578182fd5b9392505050565b60805160601c610f4461010c6000396000818161014a01528181610370015281816105ef015281816106310152818161079601526108130152610f446000f3fe608060405234801561001057600080fd5b50600436106100935760003560e01c806362df34721161006657806362df347214610145578063715018a6146101845780638da5cb5b1461018c578063ecbd45af1461019d578063f2fde38b146101b057610093565b80630fcfd2991461009857806329652e86146100ad5780634836c543146101115780636299f8cf14610132575b600080fd5b6100ab6100a6366004610ce4565b6101c3565b005b6100c06100bb366004610d58565b6103a0565b604080516001600160a01b03988916815297909616602088015263ffffffff94851695870195909552918316606086015291909116608084015260a083015260c082015260e0015b60405180910390f35b61012461011f366004610d58565b61040b565b604051908152602001610108565b6100ab610140366004610d58565b610460565b61016c7f000000000000000000000000000000000000000000000000000000000000000081565b6040516001600160a01b039091168152602001610108565b6100ab610661565b6000546001600160a01b031661016c565b6100ab6101ab366004610d70565b610697565b6100ab6101be366004610cca565b61088f565b6000546001600160a01b031633146101f65760405162461bcd60e51b81526004016101ed90610e41565b60405180910390fd5b6000811161023d5760405162461bcd60e51b8152602060048201526014602482015273131155960e881253959053125117d05353d5539560621b60448201526064016101ed565b6001805480820182556000919091527fb10e2d527612073b26eecdfd717e6a320cf44b4afac2b0732d9fcbe2b7fa0cf66004820290810180546001600160a01b0319166001600160a01b0388811691821783557fb10e2d527612073b26eecdfd717e6a320cf44b4afac2b0732d9fcbe2b7fa0cf7840180549189166001600160c01b03199092168217600160a01b4263ffffffff908116919091029190911763ffffffff60c01b1916600160c01b918a16918202179091557fb10e2d527612073b26eecdfd717e6a320cf44b4afac2b0732d9fcbe2b7fa0cf890940186905560408051928352602083019490945292810185905290919083907f5acc15765daa45774e6e01cbf852aad1c94261252984280bc9bedb2c7247ab019060600160405180910390a36103986001600160a01b037f00000000000000000000000000000000000000000000000000000000000000001687308661092a565b505050505050565b600181815481106103b057600080fd5b600091825260209091206004909102018054600182015460028301546003909301546001600160a01b0392831694509181169263ffffffff600160a01b8304811693600160c01b8404821693600160e01b9004909116919087565b6000806001838154811061042f57634e487b7160e01b600052603260045260246000fd5b90600052602060002090600402019050806003015461044d8261099b565b6104579190610eb5565b9150505b919050565b6000546001600160a01b0316331461048a5760405162461bcd60e51b81526004016101ed90610e41565b6000600182815481106104ad57634e487b7160e01b600052603260045260246000fd5b600091825260209091206004909102016001810154909150600160e01b900463ffffffff161561050f5760405162461bcd60e51b815260206004820152600d60248201526c131155960e8814d513d4141151609a1b60448201526064016101ed565b600061051a8261099b565b9050600081836002015461052e9190610eb5565b9050600081116105715760405162461bcd60e51b815260206004820152600e60248201526d131155960e881192539254d2115160921b60448201526064016101ed565b600383018290556001830180546001600160e01b0316600160e01b4263ffffffff160217905560006105a38380610eb5565b9050847f01e1f43b4ea1bfacb494bb0ea3430ce03feb6ce7ffa71b91119d8ff4c5bd72a4826040516105d791815260200190565b60405180910390a28354610618906001600160a01b037f00000000000000000000000000000000000000000000000000000000000000008116911684610a08565b801561065a57600184015461065a906001600160a01b037f00000000000000000000000000000000000000000000000000000000000000008116911683610a08565b5050505050565b6000546001600160a01b0316331461068b5760405162461bcd60e51b81526004016101ed90610e41565b6106956000610a3d565b565b6000600185815481106106ba57634e487b7160e01b600052603260045260246000fd5b600091825260209091206001600490920201908101549091506001600160a01b0316331461071c5760405162461bcd60e51b815260206004820152600f60248201526e2622ab2c1d102327a92124a22222a760891b60448201526064016101ed565b60006107278261099b565b9050600082600301548261073b9190610eb5565b6003840183905590506001600160a01b0386166107c257604051818152339088907fd79254e5daba749baa8ba954e77bbbb18efef113a8070d00df9a188d819324269060200160405180910390a36107bd6001600160a01b037f0000000000000000000000000000000000000000000000000000000000000000163383610a08565b610886565b856001600160a01b0316877fd79254e5daba749baa8ba954e77bbbb18efef113a8070d00df9a188d81932426836040516107fe91815260200190565b60405180910390a361083a6001600160a01b037f0000000000000000000000000000000000000000000000000000000000000000168783610a08565b61088485858080601f016020809104026020016040519081016040528093929190818152602001838380828437600092019190915250506001600160a01b038a1692915050610a8d565b505b50505050505050565b6000546001600160a01b031633146108b95760405162461bcd60e51b81526004016101ed90610e41565b6001600160a01b03811661091e5760405162461bcd60e51b815260206004820152602660248201527f4f776e61626c653a206e6577206f776e657220697320746865207a65726f206160448201526564647265737360d01b60648201526084016101ed565b61092781610a3d565b50565b6040516001600160a01b03808516602483015283166044820152606481018290526109959085906323b872dd60e01b906084015b60408051601f198184030181529190526020810180516001600160e01b03166001600160e01b031990931692909217909152610ad6565b50505050565b600181015460009081906109bc90600160a01b900463ffffffff1642610eb5565b6001840154909150600160c01b900463ffffffff168082106109e557505050600281015461045b565b808285600201546109f69190610e96565b610a009190610e76565b949350505050565b6040516001600160a01b038316602482015260448101829052610a3890849063a9059cbb60e01b9060640161095e565b505050565b600080546001600160a01b038381166001600160a01b0319831681178455604051919092169283917f8be0079c531659141344cd1fd0a4f28419497f9722a3daafe3b4186f6b6457e09190a35050565b6060610acf83836040518060400160405280601e81526020017f416464726573733a206c6f772d6c6576656c2063616c6c206661696c65640000815250610ba8565b9392505050565b6000610b2b826040518060400160405280602081526020017f5361666545524332303a206c6f772d6c6576656c2063616c6c206661696c6564815250856001600160a01b0316610ba89092919063ffffffff16565b805190915015610a385780806020019051810190610b499190610d38565b610a385760405162461bcd60e51b815260206004820152602a60248201527f5361666545524332303a204552433230206f7065726174696f6e20646964206e6044820152691bdd081cdd58d8d9595960b21b60648201526084016101ed565b6060610a00848460008585843b610c015760405162461bcd60e51b815260206004820152601d60248201527f416464726573733a2063616c6c20746f206e6f6e2d636f6e747261637400000060448201526064016101ed565b600080866001600160a01b03168587604051610c1d9190610df2565b60006040518083038185875af1925050503d8060008114610c5a576040519150601f19603f3d011682016040523d82523d6000602084013e610c5f565b606091505b5091509150610c6f828286610c7a565b979650505050505050565b60608315610c89575081610acf565b825115610c995782518084602001fd5b8160405162461bcd60e51b81526004016101ed9190610e0e565b80356001600160a01b038116811461045b57600080fd5b600060208284031215610cdb578081fd5b610acf82610cb3565b60008060008060808587031215610cf9578283fd5b610d0285610cb3565b9350610d1060208601610cb3565b9250604085013563ffffffff81168114610d28578283fd5b9396929550929360600135925050565b600060208284031215610d49578081fd5b81518015158114610acf578182fd5b600060208284031215610d69578081fd5b5035919050565b60008060008060608587031215610d85578384fd5b84359350610d9560208601610cb3565b9250604085013567ffffffffffffffff80821115610db1578384fd5b818701915087601f830112610dc4578384fd5b813581811115610dd2578485fd5b886020828501011115610de3578485fd5b95989497505060200194505050565b60008251610e04818460208701610ecc565b9190910192915050565b6000602082528251806020840152610e2d816040850160208701610ecc565b601f01601f19169190910160400192915050565b6020808252818101527f4f776e61626c653a2063616c6c6572206973206e6f7420746865206f776e6572604082015260600190565b600082610e9157634e487b7160e01b81526012600452602481fd5b500490565b6000816000190483118215151615610eb057610eb0610ef8565b500290565b600082821015610ec757610ec7610ef8565b500390565b60005b83811015610ee7578181015183820152602001610ecf565b838111156109955750506000910152565b634e487b7160e01b600052601160045260246000fdfea26469706673582212209e4e7700af1c9e69c03b150af5b057abeed13cf4fbc1a9060b5da7047372f8a764736f6c63430008030033",
  "devdoc": {
    "kind": "dev",
    "methods": {
      "owner()": {
        "details": "Returns the address of the current owner."
      },
      "renounceOwnership()": {
        "details": "Leaves the contract without owner. It will not be possible to call `onlyOwner` functions anymore. Can only be called by the current owner. NOTE: Renouncing ownership will leave the contract without an owner, thereby removing any functionality that is only available to the owner."
      },
      "transferOwnership(address)": {
        "details": "Transfers ownership of the contract to a new account (`newOwner`). Can only be called by the current owner."
      }
    },
    "version": 1
  },
  "userdoc": {
    "kind": "user",
    "methods": {},
    "version": 1
  },
  "storageLayout": {
    "storage": [
      {
        "astId": 7,
        "contract": "contracts/LevxPayout.sol:LevxPayout",
        "label": "_owner",
        "offset": 0,
        "slot": "0",
        "type": "t_address"
      },
      {
        "astId": 3181,
        "contract": "contracts/LevxPayout.sol:LevxPayout",
        "label": "payouts",
        "offset": 0,
        "slot": "1",
        "type": "t_array(t_struct(Payout)3196_storage)dyn_storage"
      }
    ],
    "types": {
      "t_address": {
        "encoding": "inplace",
        "label": "address",
        "numberOfBytes": "20"
      },
      "t_array(t_struct(Payout)3196_storage)dyn_storage": {
        "base": "t_struct(Payout)3196_storage",
        "encoding": "dynamic_array",
        "label": "struct LevxPayout.Payout[]",
        "numberOfBytes": "32"
      },
      "t_struct(Payout)3196_storage": {
        "encoding": "inplace",
        "label": "struct LevxPayout.Payout",
        "members": [
          {
            "astId": 3183,
            "contract": "contracts/LevxPayout.sol:LevxPayout",
            "label": "wallet",
            "offset": 0,
            "slot": "0",
            "type": "t_address"
          },
          {
            "astId": 3185,
            "contract": "contracts/LevxPayout.sol:LevxPayout",
            "label": "recipient",
            "offset": 0,
            "slot": "1",
            "type": "t_address"
          },
          {
            "astId": 3187,
            "contract": "contracts/LevxPayout.sol:LevxPayout",
            "label": "startedAt",
            "offset": 20,
            "slot": "1",
            "type": "t_uint32"
          },
          {
            "astId": 3189,
            "contract": "contracts/LevxPayout.sol:LevxPayout",
            "label": "duration",
            "offset": 24,
            "slot": "1",
            "type": "t_uint32"
          },
          {
            "astId": 3191,
            "contract": "contracts/LevxPayout.sol:LevxPayout",
            "label": "stoppedAt",
            "offset": 28,
            "slot": "1",
            "type": "t_uint32"
          },
          {
            "astId": 3193,
            "contract": "contracts/LevxPayout.sol:LevxPayout",
            "label": "amount",
            "offset": 0,
            "slot": "2",
            "type": "t_uint256"
          },
          {
            "astId": 3195,
            "contract": "contracts/LevxPayout.sol:LevxPayout",
            "label": "claimed",
            "offset": 0,
            "slot": "3",
            "type": "t_uint256"
          }
        ],
        "numberOfBytes": "128"
      },
      "t_uint256": {
        "encoding": "inplace",
        "label": "uint256",
        "numberOfBytes": "32"
      },
      "t_uint32": {
        "encoding": "inplace",
        "label": "uint32",
        "numberOfBytes": "4"
      }
    }
  }
}