{
  "address": "0x270735fe7ECE91B5f58F19a51d440B90fD9BE6e4",
  "abi": [
    {
      "inputs": [
        {
          "internalType": "address",
          "name": "_nftContract",
          "type": "address"
        },
        {
          "internalType": "uint256",
          "name": "fromTokenId",
          "type": "uint256"
        }
      ],
      "stateMutability": "nonpayable",
      "type": "constructor"
    },
    {
      "anonymous": false,
      "inputs": [
        {
          "indexed": true,
          "internalType": "bytes32",
          "name": "slug",
          "type": "bytes32"
        },
        {
          "indexed": false,
          "internalType": "address",
          "name": "signer",
          "type": "address"
        },
        {
          "indexed": false,
          "internalType": "uint32",
          "name": "deadline",
          "type": "uint32"
        },
        {
          "indexed": false,
          "internalType": "uint32",
          "name": "max",
          "type": "uint32"
        }
      ],
      "name": "Add",
      "type": "event"
    },
    {
      "anonymous": false,
      "inputs": [
        {
          "indexed": true,
          "internalType": "bytes32",
          "name": "slug",
          "type": "bytes32"
        },
        {
          "indexed": true,
          "internalType": "bytes32",
          "name": "id",
          "type": "bytes32"
        },
        {
          "indexed": true,
          "internalType": "address",
          "name": "to",
          "type": "address"
        },
        {
          "indexed": false,
          "internalType": "uint256",
          "name": "tokenId",
          "type": "uint256"
        }
      ],
      "name": "Claim",
      "type": "event"
    },
    {
      "anonymous": false,
      "inputs": [
        {
          "indexed": true,
          "internalType": "address",
          "name": "previousOwner",
          "type": "address"
        },
        {
          "indexed": true,
          "internalType": "address",
          "name": "newOwner",
          "type": "address"
        }
      ],
      "name": "OwnershipTransferred",
      "type": "event"
    },
    {
      "anonymous": false,
      "inputs": [
        {
          "indexed": false,
          "internalType": "address",
          "name": "account",
          "type": "address"
        },
        {
          "indexed": true,
          "internalType": "bool",
          "name": "isMinter",
          "type": "bool"
        }
      ],
      "name": "SetMinter",
      "type": "event"
    },
    {
      "inputs": [
        {
          "internalType": "bytes32",
          "name": "slug",
          "type": "bytes32"
        },
        {
          "internalType": "address",
          "name": "signer",
          "type": "address"
        },
        {
          "internalType": "uint32",
          "name": "deadline",
          "type": "uint32"
        },
        {
          "internalType": "uint32",
          "name": "max",
          "type": "uint32"
        }
      ],
      "name": "add",
      "outputs": [],
      "stateMutability": "nonpayable",
      "type": "function"
    },
    {
      "inputs": [
        {
          "internalType": "bytes32",
          "name": "",
          "type": "bytes32"
        }
      ],
      "name": "airdrops",
      "outputs": [
        {
          "internalType": "address",
          "name": "signer",
          "type": "address"
        },
        {
          "internalType": "uint32",
          "name": "deadline",
          "type": "uint32"
        },
        {
          "internalType": "uint32",
          "name": "max",
          "type": "uint32"
        },
        {
          "internalType": "uint32",
          "name": "minted",
          "type": "uint32"
        }
      ],
      "stateMutability": "view",
      "type": "function"
    },
    {
      "inputs": [
        {
          "internalType": "bytes32",
          "name": "slug",
          "type": "bytes32"
        },
        {
          "internalType": "bytes32",
          "name": "id",
          "type": "bytes32"
        },
        {
          "internalType": "uint8",
          "name": "v",
          "type": "uint8"
        },
        {
          "internalType": "bytes32",
          "name": "r",
          "type": "bytes32"
        },
        {
          "internalType": "bytes32",
          "name": "s",
          "type": "bytes32"
        },
        {
          "internalType": "address",
          "name": "to",
          "type": "address"
        },
        {
          "internalType": "bytes",
          "name": "data",
          "type": "bytes"
        }
      ],
      "name": "claim",
      "outputs": [],
      "stateMutability": "nonpayable",
      "type": "function"
    },
    {
      "inputs": [
        {
          "internalType": "address",
          "name": "",
          "type": "address"
        }
      ],
      "name": "isMinter",
      "outputs": [
        {
          "internalType": "bool",
          "name": "",
          "type": "bool"
        }
      ],
      "stateMutability": "view",
      "type": "function"
    },
    {
      "inputs": [
        {
          "internalType": "address",
          "name": "to",
          "type": "address"
        },
        {
          "internalType": "uint256",
          "name": "tokenId",
          "type": "uint256"
        },
        {
          "internalType": "bytes",
          "name": "data",
          "type": "bytes"
        }
      ],
      "name": "mint",
      "outputs": [],
      "stateMutability": "nonpayable",
      "type": "function"
    },
    {
      "inputs": [],
      "name": "nftContract",
      "outputs": [
        {
          "internalType": "address",
          "name": "",
          "type": "address"
        }
      ],
      "stateMutability": "view",
      "type": "function"
    },
    {
      "inputs": [],
      "name": "owner",
      "outputs": [
        {
          "internalType": "address",
          "name": "",
          "type": "address"
        }
      ],
      "stateMutability": "view",
      "type": "function"
    },
    {
      "inputs": [],
      "name": "renounceOwnership",
      "outputs": [],
      "stateMutability": "nonpayable",
      "type": "function"
    },
    {
      "inputs": [
        {
          "internalType": "address",
          "name": "account",
          "type": "address"
        },
        {
          "internalType": "bool",
          "name": "_isMinter",
          "type": "bool"
        }
      ],
      "name": "setMinter",
      "outputs": [],
      "stateMutability": "nonpayable",
      "type": "function"
    },
    {
      "inputs": [
        {
          "internalType": "address",
          "name": "newOwner",
          "type": "address"
        }
      ],
      "name": "transferOwnership",
      "outputs": [],
      "stateMutability": "nonpayable",
      "type": "function"
    }
  ],
  "transactionHash": "0x5db557e6dd77789b809168b65dfdc52f8409206e0a31f42d28830e1b71626837",
  "args": [
    "0xa59a5B0C946086d6884455A6a556729d747d16D3",
    574
  ],
  "solcInputHash": "ce515a8a54bacfced846c3d2463231f2",
  "bytecode": "0x60a060405234801561001057600080fd5b506040516110a93803806110a983398101604081905261002f916100a3565b61003833610053565b60609190911b6001600160601b0319166080526004556100db565b600080546001600160a01b038381166001600160a01b0319831681178455604051919092169283917f8be0079c531659141344cd1fd0a4f28419497f9722a3daafe3b4186f6b6457e09190a35050565b600080604083850312156100b5578182fd5b82516001600160a01b03811681146100cb578283fd5b6020939093015192949293505050565b60805160601c610fa26101076000396000818161015b0152818161060d01526107280152610fa26000f3fe608060405234801561001057600080fd5b506004361061009e5760003560e01c8063aa271e1a11610066578063aa271e1a14610110578063cf456ae714610143578063d56d229d14610156578063ee583c691461017d578063f2fde38b146102005761009e565b806345db2072146100a35780636547bea7146100b8578063715018a6146100cb5780638da5cb5b146100d357806394d008ef146100fd575b600080fd5b6100b66100b1366004610dba565b610213565b005b6100b66100c6366004610e06565b610328565b6100b661068a565b6000546001600160a01b03165b6040516001600160a01b0390911681526020015b60405180910390f35b6100b661010b366004610d4a565b6106c0565b61013361011e366004610cef565b60026020526000908152604090205460ff1681565b60405190151581526020016100f4565b6100b6610151366004610d10565b61079b565b6100e07f000000000000000000000000000000000000000000000000000000000000000081565b6101ca61018b366004610da2565b6001602052600090815260409020546001600160a01b0381169063ffffffff600160a01b8204811691600160c01b8104821691600160e01b9091041684565b604080516001600160a01b03909516855263ffffffff9384166020860152918316918401919091521660608201526080016100f4565b6100b661020e366004610cef565b610826565b6000546001600160a01b031633146102465760405162461bcd60e51b815260040161023d90610ede565b60405180910390fd5b600084815260016020526040902080546001600160a01b03161561029a5760405162461bcd60e51b815260206004820152600b60248201526a131155960e88105111115160aa1b604482015260640161023d565b80546001600160a01b0385166001600160c01b03199091168117600160a01b63ffffffff8681169182029290921763ffffffff60c01b1916600160c01b92861692830217845560408051938452602084019190915282015285907ff4176d73079b7d9ff010680a986ea6740b21228d954533585342889c7dab8df99060600160405180910390a25050505050565b600088815260016020526040902080546001600160a01b0381169063ffffffff600160a01b8204811691600160c01b8104821691600160e01b90910416836103a75760405162461bcd60e51b81526020600482015260126024820152714c4556583a20494e56414c49445f534c554760701b604482015260640161023d565b63ffffffff831615806103c557508263ffffffff164263ffffffff16105b6104015760405162461bcd60e51b815260206004820152600d60248201526c131155960e8811561412549151609a1b604482015260640161023d565b63ffffffff8216158061041f57508163ffffffff168163ffffffff16105b61045c5760405162461bcd60e51b815260206004820152600e60248201526d131155960e881192539254d2115160921b604482015260640161023d565b60008d81526003602090815260408083208f845290915290205460ff16156104b55760405162461bcd60e51b815260206004820152600c60248201526b131155960e8813525395115160a21b604482015260640161023d565b60408051602081018f90529081018d9052600090606001604051602081830303815290604052805190602001209050846001600160a01b03166105026104fa836108c1565b8e8e8e610915565b6001600160a01b03161461054d5760405162461bcd60e51b8152602060048201526012602482015271131155960e8815539055551213d49256915160721b604482015260640161023d565b50610559816001610f13565b855463ffffffff91909116600160e01b026001600160e01b0390911617855560008d81526003602090815260408083208f84529091528120805460ff191660011790556004805490826105ab83610f3b565b919050559050886001600160a01b03168d8f7fea411cc9e811421ea286583e11debae94e99652881b9f63d34cfcbdc3a05f14d846040516105ee91815260200190565b60405180910390a46040516394d008ef60e01b81526001600160a01b037f000000000000000000000000000000000000000000000000000000000000000016906394d008ef90610648908c9085908d908d90600401610e96565b600060405180830381600087803b15801561066257600080fd5b505af1158015610676573d6000803e3d6000fd5b505050505050505050505050505050505050565b6000546001600160a01b031633146106b45760405162461bcd60e51b815260040161023d90610ede565b6106be600061093d565b565b3360009081526002602052604090205460ff166107115760405162461bcd60e51b815260206004820152600f60248201526e2622ab2c1d102327a92124a22222a760891b604482015260640161023d565b6040516394d008ef60e01b81526001600160a01b037f000000000000000000000000000000000000000000000000000000000000000016906394d008ef90610763908790879087908790600401610e96565b600060405180830381600087803b15801561077d57600080fd5b505af1158015610791573d6000803e3d6000fd5b5050505050505050565b6000546001600160a01b031633146107c55760405162461bcd60e51b815260040161023d90610ede565b6001600160a01b038216600081815260026020908152604091829020805460ff1916851515908117909155915192835290917f1f96bc657d385fd83da973a43f2ad969e6d96b6779b779571a7306db7ca1cd00910160405180910390a25050565b6000546001600160a01b031633146108505760405162461bcd60e51b815260040161023d90610ede565b6001600160a01b0381166108b55760405162461bcd60e51b815260206004820152602660248201527f4f776e61626c653a206e6577206f776e657220697320746865207a65726f206160448201526564647265737360d01b606482015260840161023d565b6108be8161093d565b50565b6040517f19457468657265756d205369676e6564204d6573736167653a0a3332000000006020820152603c8101829052600090605c016040516020818303038152906040528051906020012090505b919050565b60008060006109268787878761098d565b9150915061093381610a7a565b5095945050505050565b600080546001600160a01b038381166001600160a01b0319831681178455604051919092169283917f8be0079c531659141344cd1fd0a4f28419497f9722a3daafe3b4186f6b6457e09190a35050565b6000807f7fffffffffffffffffffffffffffffff5d576e7357a4501ddfe92f46681b20a08311156109c45750600090506003610a71565b8460ff16601b141580156109dc57508460ff16601c14155b156109ed5750600090506004610a71565b6040805160008082526020820180845289905260ff881692820192909252606081018690526080810185905260019060a0016020604051602081039080840390855afa158015610a41573d6000803e3d6000fd5b5050604051601f1901519150506001600160a01b038116610a6a57600060019250925050610a71565b9150600090505b94509492505050565b6000816004811115610a9c57634e487b7160e01b600052602160045260246000fd5b1415610aa7576108be565b6001816004811115610ac957634e487b7160e01b600052602160045260246000fd5b1415610b175760405162461bcd60e51b815260206004820152601860248201527f45434453413a20696e76616c6964207369676e61747572650000000000000000604482015260640161023d565b6002816004811115610b3957634e487b7160e01b600052602160045260246000fd5b1415610b875760405162461bcd60e51b815260206004820152601f60248201527f45434453413a20696e76616c6964207369676e6174757265206c656e67746800604482015260640161023d565b6003816004811115610ba957634e487b7160e01b600052602160045260246000fd5b1415610c025760405162461bcd60e51b815260206004820152602260248201527f45434453413a20696e76616c6964207369676e6174757265202773272076616c604482015261756560f01b606482015260840161023d565b6004816004811115610c2457634e487b7160e01b600052602160045260246000fd5b14156108be5760405162461bcd60e51b815260206004820152602260248201527f45434453413a20696e76616c6964207369676e6174757265202776272076616c604482015261756560f01b606482015260840161023d565b80356001600160a01b038116811461091057600080fd5b60008083601f840112610ca5578182fd5b50813567ffffffffffffffff811115610cbc578182fd5b602083019150836020828501011115610cd457600080fd5b9250929050565b803563ffffffff8116811461091057600080fd5b600060208284031215610d00578081fd5b610d0982610c7d565b9392505050565b60008060408385031215610d22578081fd5b610d2b83610c7d565b915060208301358015158114610d3f578182fd5b809150509250929050565b60008060008060608587031215610d5f578182fd5b610d6885610c7d565b935060208501359250604085013567ffffffffffffffff811115610d8a578283fd5b610d9687828801610c94565b95989497509550505050565b600060208284031215610db3578081fd5b5035919050565b60008060008060808587031215610dcf578384fd5b84359350610ddf60208601610c7d565b9250610ded60408601610cdb565b9150610dfb60608601610cdb565b905092959194509250565b60008060008060008060008060e0898b031215610e21578384fd5b8835975060208901359650604089013560ff81168114610e3f578485fd5b95506060890135945060808901359350610e5b60a08a01610c7d565b925060c089013567ffffffffffffffff811115610e76578283fd5b610e828b828c01610c94565b999c989b5096995094979396929594505050565b6001600160a01b0385168152602081018490526060604082018190528101829052600082846080840137818301608090810191909152601f909201601f191601019392505050565b6020808252818101527f4f776e61626c653a2063616c6c6572206973206e6f7420746865206f776e6572604082015260600190565b600063ffffffff808316818516808303821115610f3257610f32610f56565b01949350505050565b6000600019821415610f4f57610f4f610f56565b5060010190565b634e487b7160e01b600052601160045260246000fdfea26469706673582212206c87e4faebbabee4654fecb003a8177ff7fdd48afc7c1bf3fac9f1ae631786af64736f6c63430008030033",
  "devdoc": {
    "kind": "dev",
    "methods": {
      "owner()": {
        "details": "Returns the address of the current owner."
      },
      "renounceOwnership()": {
        "details": "Leaves the contract without owner. It will not be possible to call `onlyOwner` functions anymore. Can only be called by the current owner. NOTE: Renouncing ownership will leave the contract without an owner, thereby removing any functionality that is only available to the owner."
      },
      "transferOwnership(address)": {
        "details": "Transfers ownership of the contract to a new account (`newOwner`). Can only be called by the current owner."
      }
    },
    "version": 1
  },
  "userdoc": {
    "kind": "user",
    "methods": {},
    "version": 1
  },
  "storageLayout": {
    "storage": [
      {
        "astId": 7,
        "contract": "contracts/NFTAirdrops.sol:NFTAirdrops",
        "label": "_owner",
        "offset": 0,
        "slot": "0",
        "type": "t_address"
      },
      {
        "astId": 4013,
        "contract": "contracts/NFTAirdrops.sol:NFTAirdrops",
        "label": "airdrops",
        "offset": 0,
        "slot": "1",
        "type": "t_mapping(t_bytes32,t_struct(Airdrop)4034_storage)"
      },
      {
        "astId": 4017,
        "contract": "contracts/NFTAirdrops.sol:NFTAirdrops",
        "label": "isMinter",
        "offset": 0,
        "slot": "2",
        "type": "t_mapping(t_address,t_bool)"
      },
      {
        "astId": 4023,
        "contract": "contracts/NFTAirdrops.sol:NFTAirdrops",
        "label": "_minted",
        "offset": 0,
        "slot": "3",
        "type": "t_mapping(t_bytes32,t_mapping(t_bytes32,t_bool))"
      },
      {
        "astId": 4025,
        "contract": "contracts/NFTAirdrops.sol:NFTAirdrops",
        "label": "_tokenId",
        "offset": 0,
        "slot": "4",
        "type": "t_uint256"
      }
    ],
    "types": {
      "t_address": {
        "encoding": "inplace",
        "label": "address",
        "numberOfBytes": "20"
      },
      "t_bool": {
        "encoding": "inplace",
        "label": "bool",
        "numberOfBytes": "1"
      },
      "t_bytes32": {
        "encoding": "inplace",
        "label": "bytes32",
        "numberOfBytes": "32"
      },
      "t_mapping(t_address,t_bool)": {
        "encoding": "mapping",
        "key": "t_address",
        "label": "mapping(address => bool)",
        "numberOfBytes": "32",
        "value": "t_bool"
      },
      "t_mapping(t_bytes32,t_bool)": {
        "encoding": "mapping",
        "key": "t_bytes32",
        "label": "mapping(bytes32 => bool)",
        "numberOfBytes": "32",
        "value": "t_bool"
      },
      "t_mapping(t_bytes32,t_mapping(t_bytes32,t_bool))": {
        "encoding": "mapping",
        "key": "t_bytes32",
        "label": "mapping(bytes32 => mapping(bytes32 => bool))",
        "numberOfBytes": "32",
        "value": "t_mapping(t_bytes32,t_bool)"
      },
      "t_mapping(t_bytes32,t_struct(Airdrop)4034_storage)": {
        "encoding": "mapping",
        "key": "t_bytes32",
        "label": "mapping(bytes32 => struct NFTAirdrops.Airdrop)",
        "numberOfBytes": "32",
        "value": "t_struct(Airdrop)4034_storage"
      },
      "t_struct(Airdrop)4034_storage": {
        "encoding": "inplace",
        "label": "struct NFTAirdrops.Airdrop",
        "members": [
          {
            "astId": 4027,
            "contract": "contracts/NFTAirdrops.sol:NFTAirdrops",
            "label": "signer",
            "offset": 0,
            "slot": "0",
            "type": "t_address"
          },
          {
            "astId": 4029,
            "contract": "contracts/NFTAirdrops.sol:NFTAirdrops",
            "label": "deadline",
            "offset": 20,
            "slot": "0",
            "type": "t_uint32"
          },
          {
            "astId": 4031,
            "contract": "contracts/NFTAirdrops.sol:NFTAirdrops",
            "label": "max",
            "offset": 24,
            "slot": "0",
            "type": "t_uint32"
          },
          {
            "astId": 4033,
            "contract": "contracts/NFTAirdrops.sol:NFTAirdrops",
            "label": "minted",
            "offset": 28,
            "slot": "0",
            "type": "t_uint32"
          }
        ],
        "numberOfBytes": "32"
      },
      "t_uint256": {
        "encoding": "inplace",
        "label": "uint256",
        "numberOfBytes": "32"
      },
      "t_uint32": {
        "encoding": "inplace",
        "label": "uint32",
        "numberOfBytes": "4"
      }
    }
  }
}